:100000000C9463000C948B000C948B000C948B006C
:100010000C948B000C948B000C948B000C94930329
:100020000C948B000C948B000C948B000C9491041A
:100030000C948B000C948B000C948B000C948B0014
:100040000C9447040C948B000C9415040C94EF034F
:100050000C948B000C948B000C948B000C948B00F4
:100060000C948B000C948B000000000024002700EF
:100070002A000000000023002600290000000008DC
:10008000000201000003040700000000000000005F
:10009000010204081020408001020408102001021F
:1000A0000408102000000000250028002B00040494
:1000B0000404040404040202020202020303030310
:1000C000030302004D0511241FBECFEFD8E0DEBFB1
:1000D000CDBF11E0A0E0B1E0ECECF0E102C0059092
:1000E0000D92AE34B107D9F722E0AEE4B1E001C021
:1000F0001D92AE32B207E1F710E0C3E6D0E004C0D3
:100100002197FE010E945E08C236D107C9F70E94FE
:10011000AA050C9464080C9400008F929F92AF92F1
:10012000BF92FF920F931F93CF93DF93F0902B0218
:100130002BE02F1508F44CC020912D0208E512E0A9
:10014000021B110927FD1395000F111F000F111F2E
:1001500020912C02C8E8D0E0C21BD10927FDD3951D
:10016000CC0FDD1FCC0FDD1F4E010D2E000CAA0899
:10017000BB089801012E000C440B550B28193909B6
:100180004A095B09DC010E94190824EB30E040E0D9
:1001900050E00E94EF07820E931EA41EB51E8C161F
:1001A0009D062CF0E801801691060CF4E4012297DC
:1001B000CC0FDD1F2FB7F8948F2D90E0FC01EE0FD0
:1001C000FF1FE80FF91FEA5FFD4FD283C1832FBFE6
:1001D000DF91CF911F910F91FF90BF90AF909F90B3
:1001E0008F900895AF92BF92CF92DF92EF92FF92DD
:1001F0000F931F93CF93DF936C017B018B01040F4F
:10020000151FEB015E01AE18BF08C017D10759F0EA
:100210006991D601ED91FC910190F081E02DC6012C
:100220000995892B79F7C501DF91CF911F910F9126
:10023000FF90EF90DF90CF90BF90AF900895FC01BA
:10024000538D448D252F30E0842F90E0821B930B3B
:10025000541710F0CF96089501970895FC01918DE1
:10026000828D981761F0A28DAE0FBF2FB11D5D96E4
:100270008C91928D9F5F9F73928F90E008958FEF86
:100280009FEF0895FC01918D828D981731F0828D3A
:10029000E80FF11D858D90E008958FEF9FEF089591
:1002A000FC01918D228D892F90E0805C9F4F821BF5
:1002B00091098F739927089589E691E00E94500172
:1002C00021E0892B09F420E0822F089580E090E05E
:1002D000892B29F00E945C0181110C940000089583
:1002E000FC01A48DA80FB92FB11DA35ABF4F2C91AB
:1002F000848D90E001968F739927848FA689B789A2
:100300002C93A089B1898C91837080648C93938D98
:10031000848D981306C00288F389E02D80818F7D3B
:1003200080830895EF92FF920F931F93CF93DF93F3
:10033000EC0181E0888F9B8D8C8D98131AC0E88921
:10034000F989808185FF15C09FB7F894EE89FF89F0
:100350006083E889F98980818370806480839FBF8E
:1003600081E090E0DF91CF911F910F91FF90EF908E
:100370000895F62E0B8D10E00F5F1F4F0F7311279E
:10038000E02E8C8D8E110CC00FB607FCFACFE889D9
:10039000F989808185FFF5CFCE010E947001F1CFF0
:1003A000EB8DEC0FFD2FF11DE35AFF4FF0829FB74D
:1003B000F8940B8FEA89FB8980818062CFCFCF933D
:1003C000DF93EC01888D8823B9F0AA89BB89E8897D
:1003D000F9898C9185FD03C0808186FD0DC00FB623
:1003E00007FCF7CF8C9185FFF2CF808185FFEDCFA1
:1003F000CE010E947001E9CFDF91CF910895833043
:1004000081F028F4813099F08230A9F00895873086
:10041000A9F08830C9F08430B1F4809180008F7DDC
:1004200003C0809180008F7780938000089584B509
:100430008F7784BD089584B58F7DFBCF8091B00008
:100440008F778093B00008958091B0008F7DF9CFB1
:10045000CF93DF93282F30E0F901E458FF4F8491C8
:10046000F901E057FF4FD491F901E255FF4FC491D4
:10047000CC23A1F081110E94FF01EC2FF0E0EE0FE0
:10048000FF1FEE58FF4FA591B491EC91ED2381E051
:1004900090E009F480E0DF91CF91089580E090E052
:1004A000FACF1F93CF93DF93282F30E0F901E45860
:1004B000FF4F8491F901E057FF4FD491F901E255C4
:1004C000FF4FC491CC23A9F0162F81110E94FF0188
:1004D000EC2FF0E0EE0FFF1FEC55FF4FA591B4910C
:1004E0008FB7F894EC91111108C0D095DE23DC93FE
:1004F0008FBFDF91CF911F910895DE2BF8CF9091A0
:10050000000189130BC0E2ECF0E0E4919FEF9093BF
:100510000001E13049F028F0E23061F060E00C9435
:10052000510210926E00FACF90916F009D7F9093D0
:100530006F00F4CF909170009D7F9093700091E0D8
:100540009093B0009091B100987F94609093B10027
:100550001092B300E3CFCF93DF9390E0FC01E0571C
:10056000FF4F249182559F4FFC0184918823D1F045
:1005700090E0880F991FFC01E859FF4FA591B491B5
:10058000FC01EC55FF4FC591D49161110EC09FB78E
:10059000F8948C91E22FE0958E238C932881E223AE
:1005A000E8839FBFDF91CF9108958FB7F894EC91C6
:1005B000E22BEC938FBFF6CF3FB7F89480915401B4
:1005C00090915501A0915601B091570126B5A89B75
:1005D00005C02F3F19F00196A11DB11D3FBFBA2FD5
:1005E000A92F982F8827BC01CD01620F711D811D95
:1005F000911D42E0660F771F881F991F4A95D1F71A
:100600000895FC0101900020E9F73197AF01481BE4
:10061000590BBC0189E691E00C94F2008F929F92F5
:10062000AF92BF92CF92DF92EF92FF920F931F9300
:10063000CF93DF93CDB7DEB7A1970FB6F894DEBFA7
:100640000FBECDBF6C01990FEE08FF08F7FE47C043
:100650006DE289E691E00E9492018C012227332706
:10066000A9012C193D094E095F0919A2CE018196F5
:100670007C019AE0892E912CA12CB12CCA01B901E0
:10068000A50194010E942108605DF70162937F013A
:10069000211531054105510589F790E080E030973B
:1006A00019F0CF010E940103080F191F83E191E0A7
:1006B0000E940103800F911FA1960FB6F894DEBF30
:1006C0000FBECDBFDF91CF911F910F91FF90EF90A3
:1006D000DF90CF90BF90AF909F908F900895A7012B
:1006E000960119A28E010F5D1F4F8AE0C82ED12CF2
:1006F000E12CF12CCA01B901A70196010E94210841
:10070000605DF80162938F012115310541055105A6
:1007100089F7309729F0CF010E9401038C01C6CFE1
:1007200010E000E0C3CF1F920F920FB60F9211247A
:100730002F933F934F935F936F937F938F939F93E9
:10074000AF93BF93EF93FF9380915D0190915E0112
:10075000A0915F01B0916001892B8A2B8B2BD1F185
:1007600090915801E0915901F0915A0180818927B7
:10077000808380915D0190915E01A0915F01B091B5
:100780006001181619061A061B069CF480915D017B
:1007900090915E01A0915F01B09160010197A10964
:1007A000B10980935D0190935E01A0935F01B093C6
:1007B0006001FF91EF91BF91AF919F918F917F91D8
:1007C0006F915F914F913F912F910F900FBE0F90BE
:1007D0001F901895809100010E947F02EACF1F921E
:1007E0000F920FB60F9211242F933F934F935F9365
:1007F0006F937F938F939F93AF93BF93EF93FF93E9
:1008000089E691E00E947001FF91EF91BF91AF9155
:100810009F918F917F916F915F914F913F912F9118
:100820000F900FBE0F901F9018951F920F920FB64A
:100830000F9211242F938F939F93EF93FF93E09147
:100840007901F0917A018081E0917F01F09180013E
:1008500082FD1BC09081809182018F5F8F732091F8
:100860008301821741F0E0918201F0E0E759FE4FE9
:10087000958F80938201FF91EF919F918F912F919E
:100880000F900FBE0F901F9018958081F4CF1F928C
:100890000F920FB60F9211242F933F938F939F9334
:1008A000AF93BF938091500190915101A09152015B
:1008B000B091530130914F0123E0230F2D3758F5AC
:1008C0000196A11DB11D20934F018093500190937B
:1008D0005101A0935201B093530180915401909122
:1008E0005501A0915601B09157010196A11DB11D6E
:1008F0008093540190935501A0935601B0935701F2
:10090000BF91AF919F918F913F912F910F900FBE0B
:100910000F901F90189526E8230F0296A11DB11D78
:10092000D2CF1F920F920FB60F9211242F933F93A5
:100930004F935F936F937F938F939F93AF93BF93E7
:10094000CF93DF93EF93FF9380914E01C0912A02E2
:10095000D0E087FF24C0109285001092840080911F
:100960004E018F5F80934E0180914E01082E000C46
:10097000990B8C179D0724F480914E018C30C4F1A3
:100980008091840090918500049680349C4908F4FD
:100990007AC08091840090918500049676C0809101
:1009A0004E01082E000C990B8C179D07C4F6E091A0
:1009B0004E018E2FEE0F990BFC01EE0FFF1FE80F7B
:1009C000F91FEA5FFD4F808186FFC9CFE0914E019C
:1009D0008E2FEE0F990BFC01EE0FFF1FE80FF91F92
:1009E000EA5FFD4F808160E08F730E945102B7CFB4
:1009F0002091840030918500E0914E018E2FEE0F02
:100A0000990BFC01EE0FFF1FE80FF91FEA5FFD4F86
:100A100081819281820F931F909389008093880037
:100A2000E0914E018E2FEE0F990BFC01EE0FFF1F90
:100A3000E80FF91FEA5FFD4F808186FF11C0E0914A
:100A40004E018E2FEE0F990BFC01EE0FFF1FE80FEA
:100A5000F91FEA5FFD4F808161E08F730E945102B0
:100A6000FF91EF91DF91CF91BF91AF919F918F91C6
:100A70007F916F915F914F913F912F910F900FBE9A
:100A80000F901F90189580E49CE9909389008093C3
:100A900088008FEF80934E01E3CF10926C0110928B
:100AA0006B0188EE93E0A0E0B0E080936D0190933D
:100AB0006E01A0936F01B093700185E091E0909377
:100AC0006A018093690185EC90E0909376018093B0
:100AD000750184EC90E0909378018093770180EC2D
:100AE00090E090937A018093790181EC90E090936B
:100AF0007C0180937B0182EC90E090937E01809357
:100B00007D0186EC90E09093800180937F011092AC
:100B100082011092830110928401109285018091CC
:100B20002A028C3098F491E0980F90932A028093D7
:100B30002B0290E0FC01EE0FFF1FE80FF91FEA5FA8
:100B4000FD4F88EB9BE09283818308958FEF809324
:100B50002B020895789484B5826084BD84B5816049
:100B600084BD85B5826085BD85B5816085BD809178
:100B70006E00816080936E001092810080918100F0
:100B800082608093810080918100816080938100E8
:100B9000809180008160809380008091B1008460AA
:100BA0008093B1008091B00081608093B00080910B
:100BB0007A00846080937A0080917A0082608093CA
:100BC0007A0080917A00816080937A0080917A0027
:100BD000806880937A001092C10060E08AE00E94F1
:100BE000AB0260E089E00E94AB0261E086E00E9417
:100BF000AB0261E087E00E94AB0261E08DE00E9401
:100C0000AB02E0917901F0917A0182E08083E0917A
:100C10007501F09176011082E0917701F0917801F1
:100C20008FEC808310928101E0917D01F0917E0133
:100C300086E08083E0917B01F0917C01808180617E
:100C40008083E0917B01F0917C01808188608083CA
:100C5000E0917B01F0917C01808180688083E0914C
:100C60007B01F0917C0180818F7D808380912B02BC
:100C70008C3008F051C061E088E00E94AB028091A6
:100C80002B02282F30E0F901EE0FFF1FE20FF31FB8
:100C9000EA5FFD4F9081907C9860908310922C02C7
:100CA00010922D022CE0622F0E945208829FB00108
:100CB000112430E020E0AB01420F531FFA01EE0F88
:100CC000FF1FE40FF51FEA5FFD4F908196FD16C0F0
:100CD0002F5F3F4F2C30310571F781110FC01092FB
:100CE000800082E080938100109285001092840041
:100CF000B19A80916F00826080936F00E0912B0227
:100D00008E2F90E0FC01EE0FFF1FE80FF91FEA5F46
:100D1000FD4F80818064808390E080E00E948D00A0
:100D20000BEB10E04DE9242E40E0342E50E9C52EA7
:100D3000DD24D394E12CF12C8AE00E9428025C018E
:100D400089E00E9428024C0186E191E00E940103A3
:100D5000C5010E940E0384E291E00E940103C401D8
:100D60000E940E038A94892821F0AA94AB2809F0E6
:100D70001AC182E391E00E94010383E191E00E94A5
:100D8000010383E191E00E94010361E086E00E949B
:100D9000510260E087E00E945102809100018D3095
:100DA00031F5E2ECF0E0C491C7FDC0C061E08DE038
:100DB0000E94AB02CC2309F489C0C23009F09AC06A
:100DC0008091B100887F83608093B10089EF809328
:100DD000B300C0925D01D0925E01E0925F01F0929B
:100DE0006001809170008260809370009FC08F3F8F
:100DF00009F09CC08DE080930001E2ECF0E0C4912A
:100E0000CF3F09F493C0C13019F150F0C23009F45A
:100E10003CC0C7FD8BC061E08DE00E94AB02CDCF2E
:100E200014BC15BC84B5826084BD85B5816085BD68
:100E3000F8018491E82FF0E0EE0FFF1FEC55FF4F13
:100E400085919491F101849180935C01C0E0AECFD3
:100E500010928000109281008091810088608093C0
:100E6000810080918100816080938100F8018491EC
:100E7000E82FF0E0EE0FFF1FEC55FF4F85919491A6
:100E8000F101849180935B0191CF1092B000109298
:100E9000B1008091B00082608093B0008091B10079
:100EA00081608093B100F8018491E82FF0E0EE0FAB
:100EB000FF1FEC55FF4F8591949190935A018093B9
:100EC0005901F10184918093580170CF85B5887FD5
:100ED000836085BD8CE787BDC0926501D0926601B5
:100EE000E0926701F092680180916E0082608093C9
:100EF0006E001CC0C13009F04EC080918100887F17
:100F00008160809381008FE39FE1909389008093BB
:100F10008800C0926101D0926201E0926301F09278
:100F2000640180916F00826080936F0084EB90E099
:100F30000E948D000E94DC022B013C0182E3882E7E
:100F4000912CA12CB12C0E94DC0264197509860930
:100F50009709683E734081059105A8F391E0891ACD
:100F60009108A108B108E8EE4E0EE3E05E1E611C98
:100F7000711C81149104A104B10429F780E090E070
:100F8000892B09F4D9CE0E945C01882309F4D4CEC0
:100F90000E940000D1CEC23021F0C111C7CF8FE333
:100FA0009ACF8FE314CF84E491E00E94010383E1A0
:100FB00091E00E94010383E191E00E94010360E05F
:100FC00086E00E94510261E087E00E94510290E0B9
:100FD00080E00E948D008DE00E947F02ABCF052E45
:100FE00097FB1EF400940E94060857FD07D00E944C
:100FF000210807FC03D04EF40C9406085095409548
:10100000309521953F4F4F4F5F4F089590958095B4
:10101000709561957F4F8F4F9F4F08950E944308B1
:10102000A59F900DB49F900DA49F800D911D11243C
:101030000895B7FF0C940E080E940E08821B930BB4
:101040000895A1E21A2EAA1BBB1BFD010DC0AA1F09
:10105000BB1FEE1FFF1FA217B307E407F50720F021
:10106000A21BB30BE40BF50B661F771F881F991F9C
:101070001A9469F760957095809590959B01AC01E5
:10108000BD01CF010895A29FB001B39FC001A39FEE
:10109000700D811D1124911DB29F700D811D1124B1
:1010A000911D0895991B79E004C0991F961708F0C7
:1010B000961B881F7A95C9F780950895EE0FFF1F3C
:0C10C0000590F491E02D0994F894FFCF06
:1010CC00FF000000009201F2001F01DF0150012E11
:1010DC000142010D0A00466C616D652056616C750C
:1010EC00653A2000536D6F6B652056616C75653ADF
:1010FC0020004649524520414C41524D204F4E2133
:0E110C00212121004E4F20464952452E000061
:00000001FF
