:100000000C9463000C948B000C948B000C948B006C
:100010000C948B000C948B000C948B000C94780344
:100020000C948B000C948B000C948B000C94760435
:100030000C948B000C948B000C948B000C948B0014
:100040000C942C040C948B000C94FA030C94D403A1
:100050000C948B000C948B000C948B000C948B00F4
:100060000C948B000C948B000000000024002700EF
:100070002A000000000023002600290000000008DC
:10008000000201000003040700000000000000005F
:10009000010204081020408001020408102001021F
:1000A0000408102000000000250028002B00040494
:1000B0000404040404040202020202020303030310
:1000C00003030200320511241FBECFEFD8E0DEBFCC
:1000D000CDBF11E0A0E0B1E0E6E8F0E102C005909C
:1000E0000D92A631B107D9F721E0A6E1B1E001C038
:1000F0001D92A63FB207E1F710E0C3E6D0E004C0CE
:100100002197FE010E943B08C236D107C9F70E9421
:100110008F050C9441080C9400008F929F92AF922F
:10012000BF92FF920F931F93CF93DF93F090F30151
:100130002BE02F1508F44CC02091F50108E512E0E2
:10014000021B110927FD1395000F111F000F111F2E
:100150002091F401C8E8D0E0C21BD10927FDD39556
:10016000CC0FDD1FCC0FDD1F4E010D2E000CAA0899
:10017000BB089801012E000C440B550B28193909B6
:100180004A095B09DC010E94F60724EB30E040E0FD
:1001900050E00E94CC07820E931EA41EB51E8C1642
:1001A0009D062CF0E801801691060CF4E4012297DC
:1001B000CC0FDD1F2FB7F8948F2D90E0FC01EE0FD0
:1001C000FF1FE80FF91FE253FE4FD283C1832FBFF9
:1001D000DF91CF911F910F91FF90BF90AF909F90B3
:1001E0008F900895AF92BF92CF92DF92EF92FF92DD
:1001F0000F931F93CF93DF936C017B018B01040F4F
:10020000151FEB015E01AE18BF08C017D10759F0EA
:100210006991D601ED91FC910190F081E02DC6012C
:100220000995892B79F7C501DF91CF911F910F9126
:10023000FF90EF90DF90CF90BF90AF900895FC01BA
:10024000538D448D252F30E0842F90E0821B930B3B
:10025000541710F0CF96089501970895FC01918DE1
:10026000828D981761F0A28DAE0FBF2FB11D5D96E4
:100270008C91928D9F5F9F73928F90E008958FEF86
:100280009FEF0895FC01918D828D981731F0828D3A
:10029000E80FF11D858D90E008958FEF9FEF089591
:1002A000FC01918D228D892F90E0805C9F4F821BF5
:1002B00091098F739927089581E391E00E9450017D
:1002C00021E0892B09F420E0822F089580E090E05E
:1002D000892B29F00E945C0181110C940000089583
:1002E000FC01A48DA80FB92FB11DA35ABF4F2C91AB
:1002F000848D90E001968F739927848FA689B789A2
:100300002C93A089B1898C91837080648C93938D98
:10031000848D981306C00288F389E02D80818F7D3B
:1003200080830895EF92FF920F931F93CF93DF93F3
:10033000EC0181E0888F9B8D8C8D98131AC0E88921
:10034000F989808185FF15C09FB7F894EE89FF89F0
:100350006083E889F98980818370806480839FBF8E
:1003600081E090E0DF91CF911F910F91FF90EF908E
:100370000895F62E0B8D10E00F5F1F4F0F7311279E
:10038000E02E8C8D8E110CC00FB607FCFACFE889D9
:10039000F989808185FFF5CFCE010E947001F1CFF0
:1003A000EB8DEC0FFD2FF11DE35AFF4FF0829FB74D
:1003B000F8940B8FEA89FB8980818062CFCFCF933D
:1003C000DF93EC01888D8823B9F0AA89BB89E8897D
:1003D000F9898C9185FD03C0808186FD0DC00FB623
:1003E00007FCF7CF8C9185FFF2CF808185FFEDCFA1
:1003F000CE010E947001E9CFDF91CF910895833043
:1004000081F028F4813099F08230A9F00895873086
:10041000A9F08830C9F08430B1F4809180008F7DDC
:1004200003C0809180008F7780938000089584B509
:100430008F7784BD089584B58F7DFBCF8091B00008
:100440008F778093B00008958091B0008F7DF9CFB1
:10045000CF93DF93282F30E0F901E458FF4F8491C8
:10046000F901E057FF4FD491F901E255FF4FC491D4
:10047000CC23A1F081110E94FF01EC2FF0E0EE0FE0
:10048000FF1FEE58FF4FA591B491EC91ED2381E051
:1004900090E009F480E0DF91CF91089580E090E052
:1004A000FACF1F93CF93DF93282F30E0F901E45860
:1004B000FF4F8491F901E057FF4FD491F901E255C4
:1004C000FF4FC491CC23A9F0162F81110E94FF0188
:1004D000EC2FF0E0EE0FFF1FEC55FF4FA591B4910C
:1004E0008FB7F894EC91111108C0D095DE23DC93FE
:1004F0008FBFDF91CF911F910895DE2BF8CF9091A0
:10050000000189130BC0E2ECF0E0E4919FEF9093BF
:100510000001E13049F028F0E23061F060E00C9435
:10052000510210926E00FACF90916F009D7F9093D0
:100530006F00F4CF909170009D7F9093700091E0D8
:100540009093B0009091B100987F94609093B10027
:100550001092B300E3CFCF93DF9390E0FC01E0571C
:10056000FF4F249182559F4FFC0184918823D1F045
:1005700090E0880F991FFC01E859FF4FA591B491B5
:10058000FC01EC55FF4FC591D49161110EC09FB78E
:10059000F8948C91E22FE0958E238C932881E223AE
:1005A000E8839FBFDF91CF9108958FB7F894EC91C6
:1005B000E22BEC938FBFF6CF3FB7F89480911C01EC
:1005C00090911D01A0911E01B0911F0126B5A89B1D
:1005D00005C02F3F19F00196A11DB11D3FBFBA2FD5
:1005E000A92F982F8827BC01CD01620F711D811D95
:1005F000911D42E0660F771F881F991F4A95D1F71A
:1006000008958F929F92AF92BF920F931F93CF93B3
:10061000DF93CDB7DEB7A1970FB6F894DEBF0FBE5C
:10062000CDBF19A2423008F44AE08E010F5D1F4F82
:10063000842E912CB12CA12CA50194010E94FE07BF
:10064000E62FB901CA01EA3044F5E05DD801EE9326
:100650008D01232B242B252B79F790E080E0109738
:1006600069F0FD0101900020E9F73197AF014A1BC5
:100670005B0BBD0181E391E00E94F200A1960FB6F1
:10068000F894DEBF0FBECDBFDF91CF911F910F91C8
:10069000BF90AF909F908F900895E95CD7CFCF9295
:1006A000DF92EF92FF92CF93DF936B017C016DE2BB
:1006B00081E391E00E949201EC0166277727CB014C
:1006C0006C197D098E099F094AE00E9401038C0F75
:1006D0009D1FDF91CF91FF90EF90DF90CF90089515
:1006E00042E050E063E171E081E391E00C94F200BC
:1006F0001F920F920FB60F9211242F933F934F9397
:100700005F936F937F938F939F93AF93BF93EF9379
:10071000FF938091250190912601A0912701B0912E
:100720002801892B8A2B8B2BD1F190912001E0910C
:100730002101F09122018081892780838091250108
:1007400090912601A0912701B09128011816190651
:100750001A061B069CF48091250190912601A09118
:100760002701B09128010197A109B10980932501C2
:1007700090932601A0932701B0932801FF91EF9158
:10078000BF91AF919F918F917F916F915F914F91A9
:100790003F912F910F900FBE0F901F901895809151
:1007A00000010E947F02EACF1F920F920FB60F92B4
:1007B00011242F933F934F935F936F937F938F9366
:1007C0009F93AF93BF93EF93FF9381E391E00E94D8
:1007D0007001FF91EF91BF91AF919F918F917F91A8
:1007E0006F915F914F913F912F910F900FBE0F909E
:1007F0001F9018951F920F920FB60F9211242F93EE
:100800008F939F93EF93FF93E0914101F091420109
:100810008081E0914701F091480182FD1BC09081E9
:1008200080914A018F5F8F7320914B01821741F0B5
:10083000E0914A01F0E0EF5CFE4F958F80934A0112
:10084000FF91EF919F918F912F910F900FBE0F907D
:100850001F9018958081F4CF1F920F920FB60F92C0
:1008600011242F933F938F939F93AF93BF938091C6
:10087000180190911901A0911A01B0911B013091BA
:10088000170123E0230F2D3758F50196A11DB11D47
:10089000209317018093180190931901A0931A01D6
:1008A000B0931B0180911C0190911D01A0911E012C
:1008B000B0911F010196A11DB11D80931C01909361
:1008C0001D01A0931E01B0931F01BF91AF919F9195
:1008D0008F913F912F910F900FBE0F901F90189501
:1008E00026E8230F0296A11DB11DD2CF1F920F92B1
:1008F0000FB60F9211242F933F934F935F936F93F3
:100900007F938F939F93AF93BF93CF93DF93EF9397
:10091000FF9380911601C091F201D0E087FF24C0BF
:100920001092850010928400809116018F5F809351
:10093000160180911601082E000C990B8C179D074B
:1009400024F4809116018C30C4F180918400909140
:100950008500049680349C4908F47AC08091840014
:1009600090918500049676C080911601082E000CA7
:10097000990B8C179D07C4F6E09116018E2FEE0F90
:10098000990BFC01EE0FFF1FE80FF91FE253FE4F1A
:10099000808186FFC9CFE09116018E2FEE0F990B53
:1009A000FC01EE0FFF1FE80FF91FE253FE4F80819D
:1009B00060E08F730E945102B7CF20918400309184
:1009C0008500E09116018E2FEE0F990BFC01EE0FC2
:1009D000FF1FE80FF91FE253FE4F81819281820FC2
:1009E000931F9093890080938800E09116018E2FC9
:1009F000EE0F990BFC01EE0FFF1FE80FF91FE253FA
:100A0000FE4F808186FF11C0E09116018E2FEE0F00
:100A1000990BFC01EE0FFF1FE80FF91FE253FE4F89
:100A2000808161E08F730E945102FF91EF91DF910D
:100A3000CF91BF91AF919F918F917F916F915F9176
:100A40004F913F912F910F900FBE0F901F901895CF
:100A500080E49CE990938900809388008FEF8093D5
:100A60001601E3CF109234011092330188EE93E027
:100A7000A0E0B0E08093350190933601A093370158
:100A8000B093380185E091E0909332018093310179
:100A900085EC90E090933E0180933D0184EC90E0E2
:100AA0009093400180933F0180EC90E0909342014D
:100AB0008093410181EC90E0909344018093430145
:100AC00082EC90E0909346018093450186EC90E0A3
:100AD000909348018093470110924A0110924B0174
:100AE00010924C0110924D018091F2018C3098F4DB
:100AF00091E0980F9093F2018093F30190E0FC0154
:100B0000EE0FFF1FE80FF91FE253FE4F88EB9BE04B
:100B10009283818308958FEF8093F30108957894F1
:100B200084B5826084BD84B5816084BD85B58260F2
:100B300085BD85B5816085BD80916E0081608093A3
:100B40006E0010928100809181008260809381000C
:100B5000809181008160809381008091800081601C
:100B6000809380008091B10084608093B100809177
:100B7000B00081608093B00080917A00846080939F
:100B80007A0080917A00826080937A0080917A0066
:100B9000816080937A0080917A00806880937A00E7
:100BA0001092C10060E08AE00E94AB0260E089E040
:100BB0000E94AB0261E086E00E94AB0261E087E048
:100BC0000E94AB0261E08DE00E94AB02E091410126
:100BD000F091420182E08083E0913D01F0913E017D
:100BE0001082E0913F01F09140018FEC80831092E0
:100BF0004901E0914501F091460186E08083E09152
:100C00004301F0914401808180618083E091430140
:100C1000F0914401808188608083E0914301F091EC
:100C20004401808180688083E0914301F091440118
:100C300080818F7D80838091F3018C3008F051C0DA
:100C400061E088E00E94AB028091F301282F30E040
:100C5000F901EE0FFF1FE20FF31FE253FE4F9081E9
:100C6000907C986090831092F4011092F5012CE032
:100C7000622F0E942F08829FB001112430E020E0F3
:100C8000AB01420F531FFA01EE0FFF1FE40FF51FD8
:100C9000E253FE4F908196FD16C02F5F3F4F2C30E0
:100CA000310571F781110FC01092800082E08093AE
:100CB00081001092850010928400B19A80916F009B
:100CC000826080936F00E091F3018E2F90E0FC0131
:100CD000EE0FFF1FE80FF91FE253FE4F8081806483
:100CE000808390E080E00E948D000BEB10E04DE9E6
:100CF000242E40E0342E50E9C52EDD24D394E12C7F
:100D0000F12C8AE00E9428025C0189E00E942802FE
:100D10004C01B5010B2C000C880B990B97FF48C0B8
:100D20000E944F030E947003B401092C000C880B31
:100D3000990B97FF41C00E944F030E9470038A9451
:100D4000892821F0AA94AB2809F016C161E086E059
:100D50000E94510260E087E00E94510280910001F0
:100D60008D3071F5E2ECF0E0C491C7FDC8C061E0E0
:100D70008DE00E94AB02CC2309F491C0C23009F08F
:100D8000A2C08091B100887F83608093B10089EF19
:100D90008093B300C0922501D0922601E0922701F2
:100DA000F092280180917000826080937000A7C04B
:100DB0004AE00E940103B6CF4AE00E940103BDCF82
:100DC0008F3F09F09CC08DE080930001E2ECF0E0E1
:100DD000C491CF3F09F493C0C13019F150F0C23033
:100DE00009F43CC0C7FD8BC061E08DE00E94AB02FE
:100DF000C5CF14BC15BC84B5826084BD85B5816047
:100E000085BDF8018491E82FF0E0EE0FFF1FEC554F
:100E1000FF4F85919491F101849180932401C0E06A
:100E2000A6CF10928000109281008091810088608E
:100E30008093810080918100816080938100F8011E
:100E40008491E82FF0E0EE0FFF1FEC55FF4F8591E6
:100E50009491F10184918093230189CF1092B00085
:100E60001092B1008091B00082608093B0008091B8
:100E7000B10081608093B100F8018491E82FF0E027
:100E8000EE0FFF1FEC55FF4F859194919093220137
:100E900080932101F10184918093200168CF85B571
:100EA000887F836085BD8CE787BDC0922D01D0927D
:100EB0002E01E0922F01F092300180916E0082604D
:100EC00080936E001CC0C13009F04EC0809181003B
:100ED000887F8160809381008FE39FE190938900F8
:100EE00080938800C0922901D0922A01E0922B01C0
:100EF000F0922C0180916F00826080936F0084EBF0
:100F000090E00E948D000E94DC022B013C0182E3F4
:100F1000882E912CA12CB12C0E94DC026419750939
:100F200086099709683E734081059105A8F391E011
:100F3000891A9108A108B108E8EE4E0EE3E05E1EA2
:100F4000611C711C81149104A104B10429F780E093
:100F500090E0892B09F4D5CE0E945C01882309F426
:100F6000D0CE0E940000CDCEC23021F0C111C7CF3B
:100F70008FE39ACF8FE30CCF60E086E00E945102AE
:100F800061E087E00E94510290E080E00E948D00C5
:100F90008DE00E947F02B7CF052E97FB1EF40094D0
:100FA0000E94E30757FD07D00E94FE0707FC03D00D
:100FB0004EF40C94E30750954095309521953F4FA2
:100FC0004F4F5F4F089590958095709561957F4F35
:100FD0008F4F9F4F08950E942008A59F900DB49FAA
:100FE000900DA49F800D911D11240895B7FF0C94BE
:100FF000EB070E94EB07821B930B0895A1E21A2EC8
:10100000AA1BBB1BFD010DC0AA1FBB1FEE1FFF1FAC
:10101000A217B307E407F50720F0A21BB30BE40BFC
:10102000F50B661F771F881F991F1A9469F7609543
:101030007095809590959B01AC01BD01CF010895FD
:10104000A29FB001B39FC001A39F700D811D112409
:10105000911DB29F700D811D1124911D0895991B42
:1010600079E004C0991F961708F0961B881F7A959F
:10107000C9F780950895EE0FFF1F0590F491E02DBC
:061080000994F894FFCF73
:10108600FF000000009201F2001F01DF0150012E57
:061096000142010D0A00F9
:00000001FF
